{
	"contracts/ArrayOperations.sol": {
		"ArrayOperations": {
			"abi": [
				{
					"inputs": [
						{
							"internalType": "uint256",
							"name": "",
							"type": "uint256"
						}
					],
					"name": "mainNumbers",
					"outputs": [
						{
							"internalType": "uint256",
							"name": "",
							"type": "uint256"
						}
					],
					"stateMutability": "view",
					"type": "function"
				},
				{
					"inputs": [],
					"name": "modifyMemoryCopy",
					"outputs": [
						{
							"internalType": "uint256[]",
							"name": "",
							"type": "uint256[]"
						}
					],
					"stateMutability": "view",
					"type": "function"
				}
			],
			"devdoc": {
				"kind": "dev",
				"methods": {},
				"version": 1
			},
			"evm": {
				"assembly": "    /* \"contracts/ArrayOperations.sol\":72:1099  contract ArrayOperations {... */\n  mstore(0x40, 0x80)\n    /* \"contracts/ArrayOperations.sol\":206:245  uint[] public mainNumbers = [5, 10, 15] */\n  mload(0x40)\n  dup1\n  0x60\n  add\n  0x40\n  mstore\n  dup1\n    /* \"contracts/ArrayOperations.sol\":235:236  5 */\n  0x05\n    /* \"contracts/ArrayOperations.sol\":206:245  uint[] public mainNumbers = [5, 10, 15] */\n  0xff\n  and\n  dup2\n  mstore\n  0x20\n  add\n    /* \"contracts/ArrayOperations.sol\":238:240  10 */\n  0x0a\n    /* \"contracts/ArrayOperations.sol\":206:245  uint[] public mainNumbers = [5, 10, 15] */\n  0xff\n  and\n  dup2\n  mstore\n  0x20\n  add\n    /* \"contracts/ArrayOperations.sol\":242:244  15 */\n  0x0f\n    /* \"contracts/ArrayOperations.sol\":206:245  uint[] public mainNumbers = [5, 10, 15] */\n  0xff\n  and\n  dup2\n  mstore\n  pop\n  0x00\n  swap1\n  dup2\n  tag_1\n  swap2\n  swap1\n  tag_2\n  jump\t// in\ntag_1:\n  pop\n    /* \"contracts/ArrayOperations.sol\":72:1099  contract ArrayOperations {... */\n  callvalue\n  dup1\n  iszero\n  tag_3\n  jumpi\n  revert(0x00, 0x00)\ntag_3:\n  pop\n  jump(tag_4)\n    /* \"#utility.yul\":7:187   */\ntag_5:\n    /* \"#utility.yul\":55:132   */\n  0x4e487b7100000000000000000000000000000000000000000000000000000000\n    /* \"#utility.yul\":52:53   */\n  0x00\n    /* \"#utility.yul\":45:133   */\n  mstore\n    /* \"#utility.yul\":152:156   */\n  0x41\n    /* \"#utility.yul\":149:150   */\n  0x04\n    /* \"#utility.yul\":142:157   */\n  mstore\n    /* \"#utility.yul\":176:180   */\n  0x24\n    /* \"#utility.yul\":173:174   */\n  0x00\n    /* \"#utility.yul\":166:181   */\n  revert\n    /* \"#utility.yul\":193:304   */\ntag_6:\n    /* \"#utility.yul\":257:263   */\n  0x00\n    /* \"#utility.yul\":291:296   */\n  dup2\n    /* \"#utility.yul\":285:297   */\n  sload\n    /* \"#utility.yul\":275:297   */\n  swap1\n  pop\n    /* \"#utility.yul\":193:304   */\n  swap2\n  swap1\n  pop\n  jump\t// out\n    /* \"#utility.yul\":310:387   */\ntag_7:\n    /* \"#utility.yul\":347:354   */\n  0x00\n    /* \"#utility.yul\":376:381   */\n  dup2\n    /* \"#utility.yul\":365:381   */\n  swap1\n  pop\n    /* \"#utility.yul\":310:387   */\n  swap2\n  swap1\n  pop\n  jump\t// out\n    /* \"#utility.yul\":995:1198   */\ntag_10:\n    /* \"#utility.yul\":1076:1080   */\n  0x00\n    /* \"#utility.yul\":1099:1105   */\n  dup2\n    /* \"#utility.yul\":1091:1105   */\n  swap1\n  pop\n    /* \"#utility.yul\":1189:1190   */\n  0x01\n    /* \"#utility.yul\":1184:1185   */\n  dup1\n    /* \"#utility.yul\":1181:1182   */\n  0x01\n    /* \"#utility.yul\":1177:1186   */\n  sub\n    /* \"#utility.yul\":1169:1175   */\n  dup4\n    /* \"#utility.yul\":1165:1187   */\n  add\n    /* \"#utility.yul\":1161:1191   */\n  div\n    /* \"#utility.yul\":1153:1191   */\n  swap1\n  pop\n    /* \"#utility.yul\":995:1198   */\n  swap2\n  swap1\n  pop\n  jump\t// out\n    /* \"#utility.yul\":1203:1359   */\ntag_11:\n    /* \"#utility.yul\":1267:1271   */\n  0x00\n    /* \"#utility.yul\":1290:1293   */\n  dup2\n    /* \"#utility.yul\":1282:1293   */\n  swap1\n  pop\n    /* \"#utility.yul\":1313:1316   */\n  dup2\n    /* \"#utility.yul\":1310:1311   */\n  0x00\n    /* \"#utility.yul\":1303:1317   */\n  mstore\n    /* \"#utility.yul\":1347:1351   */\n  0x20\n    /* \"#utility.yul\":1344:1345   */\n  0x00\n    /* \"#utility.yul\":1334:1352   */\n  keccak256\n    /* \"#utility.yul\":1326:1352   */\n  swap1\n  pop\n    /* \"#utility.yul\":1203:1359   */\n  swap2\n  swap1\n  pop\n  jump\t// out\n    /* \"#utility.yul\":1365:1472   */\ntag_12:\n    /* \"#utility.yul\":1409:1417   */\n  0x00\n    /* \"#utility.yul\":1459:1464   */\n  dup3\n    /* \"#utility.yul\":1453:1457   */\n  dup3\n    /* \"#utility.yul\":1449:1465   */\n  shl\n    /* \"#utility.yul\":1428:1465   */\n  swap1\n  pop\n    /* \"#utility.yul\":1365:1472   */\n  swap3\n  swap2\n  pop\n  pop\n  jump\t// out\n    /* \"#utility.yul\":1478:1871   */\ntag_13:\n    /* \"#utility.yul\":1547:1553   */\n  0x00\n    /* \"#utility.yul\":1597:1598   */\n  0x08\n    /* \"#utility.yul\":1585:1595   */\n  dup4\n    /* \"#utility.yul\":1581:1599   */\n  mul\n    /* \"#utility.yul\":1620:1717   */\n  tag_47\n    /* \"#utility.yul\":1650:1716   */\n  0xffffffffffffffffffffffffffffffffffffffffffffffffffffffffffffffff\n    /* \"#utility.yul\":1639:1648   */\n  dup3\n    /* \"#utility.yul\":1620:1717   */\n  tag_12\n  jump\t// in\ntag_47:\n    /* \"#utility.yul\":1738:1777   */\n  tag_48\n    /* \"#utility.yul\":1768:1776   */\n  dup7\n    /* \"#utility.yul\":1757:1766   */\n  dup4\n    /* \"#utility.yul\":1738:1777   */\n  tag_12\n  jump\t// in\ntag_48:\n    /* \"#utility.yul\":1726:1777   */\n  swap6\n  pop\n    /* \"#utility.yul\":1810:1814   */\n  dup1\n    /* \"#utility.yul\":1806:1815   */\n  not\n    /* \"#utility.yul\":1799:1804   */\n  dup5\n    /* \"#utility.yul\":1795:1816   */\n  and\n    /* \"#utility.yul\":1786:1816   */\n  swap4\n  pop\n    /* \"#utility.yul\":1859:1863   */\n  dup1\n    /* \"#utility.yul\":1849:1857   */\n  dup7\n    /* \"#utility.yul\":1845:1864   */\n  and\n    /* \"#utility.yul\":1838:1843   */\n  dup5\n    /* \"#utility.yul\":1835:1865   */\n  or\n    /* \"#utility.yul\":1825:1865   */\n  swap3\n  pop\n    /* \"#utility.yul\":1554:1871   */\n  pop\n  pop\n    /* \"#utility.yul\":1478:1871   */\n  swap4\n  swap3\n  pop\n  pop\n  pop\n  jump\t// out\n    /* \"#utility.yul\":1877:1937   */\ntag_14:\n    /* \"#utility.yul\":1905:1908   */\n  0x00\n    /* \"#utility.yul\":1926:1931   */\n  dup2\n    /* \"#utility.yul\":1919:1931   */\n  swap1\n  pop\n    /* \"#utility.yul\":1877:1937   */\n  swap2\n  swap1\n  pop\n  jump\t// out\n    /* \"#utility.yul\":1943:2085   */\ntag_15:\n    /* \"#utility.yul\":1993:2002   */\n  0x00\n    /* \"#utility.yul\":2026:2079   */\n  tag_51\n    /* \"#utility.yul\":2044:2078   */\n  tag_52\n    /* \"#utility.yul\":2053:2077   */\n  tag_53\n    /* \"#utility.yul\":2071:2076   */\n  dup5\n    /* \"#utility.yul\":2053:2077   */\n  tag_7\n  jump\t// in\ntag_53:\n    /* \"#utility.yul\":2044:2078   */\n  tag_14\n  jump\t// in\ntag_52:\n    /* \"#utility.yul\":2026:2079   */\n  tag_7\n  jump\t// in\ntag_51:\n    /* \"#utility.yul\":2013:2079   */\n  swap1\n  pop\n    /* \"#utility.yul\":1943:2085   */\n  swap2\n  swap1\n  pop\n  jump\t// out\n    /* \"#utility.yul\":2091:2166   */\ntag_16:\n    /* \"#utility.yul\":2134:2137   */\n  0x00\n    /* \"#utility.yul\":2155:2160   */\n  dup2\n    /* \"#utility.yul\":2148:2160   */\n  swap1\n  pop\n    /* \"#utility.yul\":2091:2166   */\n  swap2\n  swap1\n  pop\n  jump\t// out\n    /* \"#utility.yul\":2172:2441   */\ntag_17:\n    /* \"#utility.yul\":2282:2321   */\n  tag_56\n    /* \"#utility.yul\":2313:2320   */\n  dup4\n    /* \"#utility.yul\":2282:2321   */\n  tag_15\n  jump\t// in\ntag_56:\n    /* \"#utility.yul\":2343:2434   */\n  tag_57\n    /* \"#utility.yul\":2392:2433   */\n  tag_58\n    /* \"#utility.yul\":2416:2432   */\n  dup3\n    /* \"#utility.yul\":2392:2433   */\n  tag_16\n  jump\t// in\ntag_58:\n    /* \"#utility.yul\":2384:2390   */\n  dup5\n    /* \"#utility.yul\":2377:2381   */\n  dup5\n    /* \"#utility.yul\":2371:2382   */\n  sload\n    /* \"#utility.yul\":2343:2434   */\n  tag_13\n  jump\t// in\ntag_57:\n    /* \"#utility.yul\":2337:2341   */\n  dup3\n    /* \"#utility.yul\":2330:2435   */\n  sstore\n    /* \"#utility.yul\":2248:2441   */\n  pop\n    /* \"#utility.yul\":2172:2441   */\n  pop\n  pop\n  pop\n  jump\t// out\n    /* \"#utility.yul\":2447:2520   */\ntag_18:\n    /* \"#utility.yul\":2492:2495   */\n  0x00\n    /* \"#utility.yul\":2513:2514   */\n  0x00\n    /* \"#utility.yul\":2506:2514   */\n  swap1\n  pop\n    /* \"#utility.yul\":2447:2520   */\n  swap1\n  jump\t// out\n    /* \"#utility.yul\":2526:2715   */\ntag_19:\n    /* \"#utility.yul\":2603:2635   */\n  tag_61\n  tag_18\n  jump\t// in\ntag_61:\n    /* \"#utility.yul\":2644:2709   */\n  tag_62\n    /* \"#utility.yul\":2702:2708   */\n  dup2\n    /* \"#utility.yul\":2694:2700   */\n  dup5\n    /* \"#utility.yul\":2688:2692   */\n  dup5\n    /* \"#utility.yul\":2644:2709   */\n  tag_17\n  jump\t// in\ntag_62:\n    /* \"#utility.yul\":2579:2715   */\n  pop\n    /* \"#utility.yul\":2526:2715   */\n  pop\n  pop\n  jump\t// out\n    /* \"#utility.yul\":2721:2936   */\ntag_20:\n    /* \"#utility.yul\":2807:2808   */\n  0x00\n    /* \"#utility.yul\":2792:2930   */\ntag_64:\n    /* \"#utility.yul\":2817:2826   */\n  dup3\n    /* \"#utility.yul\":2814:2815   */\n  dup2\n    /* \"#utility.yul\":2811:2827   */\n  lt\n    /* \"#utility.yul\":2792:2930   */\n  iszero\n  tag_66\n  jumpi\n    /* \"#utility.yul\":2869:2920   */\n  tag_67\n    /* \"#utility.yul\":2918:2919   */\n  0x00\n    /* \"#utility.yul\":2914:2915   */\n  dup3\n    /* \"#utility.yul\":2903:2912   */\n  dup5\n    /* \"#utility.yul\":2899:2916   */\n  add\n    /* \"#utility.yul\":2869:2920   */\n  tag_19\n  jump\t// in\ntag_67:\n    /* \"#utility.yul\":2842:2843   */\n  0x01\n    /* \"#utility.yul\":2839:2840   */\n  dup2\n    /* \"#utility.yul\":2835:2844   */\n  add\n    /* \"#utility.yul\":2830:2844   */\n  swap1\n  pop\n    /* \"#utility.yul\":2792:2930   */\n  jump(tag_64)\ntag_66:\n    /* \"#utility.yul\":2796:2810   */\n  pop\n    /* \"#utility.yul\":2721:2936   */\n  pop\n  pop\n  jump\t// out\n    /* \"#utility.yul\":3315:3955   */\ntag_23:\n    /* \"#utility.yul\":3435:3438   */\n  dup2\n    /* \"#utility.yul\":3423:3433   */\n  dup4\n    /* \"#utility.yul\":3420:3439   */\n  lt\n    /* \"#utility.yul\":3417:3948   */\n  iszero\n  tag_72\n  jumpi\n    /* \"#utility.yul\":3526:3591   */\n  tag_73\n    /* \"#utility.yul\":3587:3590   */\n  dup3\n    /* \"#utility.yul\":3526:3591   */\n  tag_10\n  jump\t// in\ntag_73:\n    /* \"#utility.yul\":3624:3696   */\n  tag_74\n    /* \"#utility.yul\":3685:3695   */\n  dup5\n    /* \"#utility.yul\":3624:3696   */\n  tag_10\n  jump\t// in\ntag_74:\n    /* \"#utility.yul\":3731:3784   */\n  tag_75\n    /* \"#utility.yul\":3778:3783   */\n  dup4\n    /* \"#utility.yul\":3731:3784   */\n  tag_11\n  jump\t// in\ntag_75:\n    /* \"#utility.yul\":3836:3848   */\n  dup2\n    /* \"#utility.yul\":3820:3834   */\n  dup2\n    /* \"#utility.yul\":3816:3849   */\n  add\n    /* \"#utility.yul\":3863:3938   */\n  tag_76\n    /* \"#utility.yul\":3924:3936   */\n  dup4\n    /* \"#utility.yul\":3910:3922   */\n  dup6\n    /* \"#utility.yul\":3906:3937   */\n  sub\n    /* \"#utility.yul\":3893:3904   */\n  dup3\n    /* \"#utility.yul\":3863:3938   */\n  tag_20\n  jump\t// in\ntag_76:\n    /* \"#utility.yul\":3440:3948   */\n  pop\n  pop\n  pop\n  pop\n    /* \"#utility.yul\":3417:3948   */\ntag_72:\n    /* \"#utility.yul\":3315:3955   */\n  pop\n  pop\n  pop\n  jump\t// out\n    /* \"#utility.yul\":3961:4349   */\ntag_24:\n    /* \"#utility.yul\":4054:4074   */\n  0x010000000000000000\n    /* \"#utility.yul\":4046:4052   */\n  dup3\n    /* \"#utility.yul\":4043:4075   */\n  gt\n    /* \"#utility.yul\":4040:4118   */\n  iszero\n  tag_78\n  jumpi\n    /* \"#utility.yul\":4090:4108   */\n  tag_79\n  tag_5\n  jump\t// in\ntag_79:\n    /* \"#utility.yul\":4040:4118   */\ntag_78:\n    /* \"#utility.yul\":4142:4193   */\n  tag_80\n    /* \"#utility.yul\":4187:4192   */\n  dup2\n    /* \"#utility.yul\":4142:4193   */\n  tag_6\n  jump\t// in\ntag_80:\n    /* \"#utility.yul\":4245:4251   */\n  dup3\n    /* \"#utility.yul\":4238:4243   */\n  dup3\n    /* \"#utility.yul\":4231:4252   */\n  sstore\n    /* \"#utility.yul\":4262:4342   */\n  tag_81\n    /* \"#utility.yul\":4335:4341   */\n  dup4\n    /* \"#utility.yul\":4327:4333   */\n  dup3\n    /* \"#utility.yul\":4320:4325   */\n  dup5\n    /* \"#utility.yul\":4262:4342   */\n  tag_23\n  jump\t// in\ntag_81:\n    /* \"#utility.yul\":4030:4349   */\n  pop\n    /* \"#utility.yul\":3961:4349   */\n  pop\n  pop\n  jump\t// out\n    /* \"#utility.yul\":4354:4456   */\ntag_25:\n    /* \"#utility.yul\":4417:4423   */\n  0x00\n    /* \"#utility.yul\":4445:4449   */\n  0x03\n    /* \"#utility.yul\":4435:4449   */\n  swap1\n  pop\n    /* \"#utility.yul\":4354:4456   */\n  swap2\n  swap1\n  pop\n  jump\t// out\n    /* \"#utility.yul\":4462:4548   */\ntag_26:\n    /* \"#utility.yul\":4497:4504   */\n  0x00\n    /* \"#utility.yul\":4537:4541   */\n  0xff\n    /* \"#utility.yul\":4530:4535   */\n  dup3\n    /* \"#utility.yul\":4526:4542   */\n  and\n    /* \"#utility.yul\":4515:4542   */\n  swap1\n  pop\n    /* \"#utility.yul\":4462:4548   */\n  swap2\n  swap1\n  pop\n  jump\t// out\n    /* \"#utility.yul\":4554:4704   */\ntag_27:\n    /* \"#utility.yul\":4595:4606   */\n  0x00\n    /* \"#utility.yul\":4631:4658   */\n  tag_85\n    /* \"#utility.yul\":4653:4656   */\n  dup3\n    /* \"#utility.yul\":4647:4657   */\n  mload\n    /* \"#utility.yul\":4631:4658   */\n  tag_26\n  jump\t// in\ntag_85:\n    /* \"#utility.yul\":4692:4697   */\n  dup1\n    /* \"#utility.yul\":4668:4697   */\n  swap2\n  pop\n    /* \"#utility.yul\":4607:4704   */\n  pop\n    /* \"#utility.yul\":4554:4704   */\n  swap2\n  swap1\n  pop\n  jump\t// out\n    /* \"#utility.yul\":4710:4806   */\ntag_28:\n    /* \"#utility.yul\":4773:4777   */\n  0x00\n    /* \"#utility.yul\":4796:4799   */\n  dup2\n    /* \"#utility.yul\":4788:4799   */\n  swap1\n  pop\n    /* \"#utility.yul\":4710:4806   */\n  swap2\n  swap1\n  pop\n  jump\t// out\n    /* \"#utility.yul\":5258:6245   */\ntag_2:\n    /* \"#utility.yul\":5395:5443   */\n  tag_96\n    /* \"#utility.yul\":5439:5442   */\n  dup3\n    /* \"#utility.yul\":5395:5443   */\n  tag_25\n  jump\t// in\ntag_96:\n    /* \"#utility.yul\":5508:5526   */\n  0xffffffffffffffff\n    /* \"#utility.yul\":5500:5506   */\n  dup2\n    /* \"#utility.yul\":5497:5527   */\n  gt\n    /* \"#utility.yul\":5494:5550   */\n  iszero\n  tag_97\n  jumpi\n    /* \"#utility.yul\":5530:5548   */\n  tag_98\n  tag_5\n  jump\t// in\ntag_98:\n    /* \"#utility.yul\":5494:5550   */\ntag_97:\n    /* \"#utility.yul\":5559:5616   */\n  tag_99\n    /* \"#utility.yul\":5609:5615   */\n  dup2\n    /* \"#utility.yul\":5604:5607   */\n  dup4\n    /* \"#utility.yul\":5559:5616   */\n  tag_24\n  jump\t// in\ntag_99:\n    /* \"#utility.yul\":5640:5690   */\n  tag_100\n    /* \"#utility.yul\":5686:5689   */\n  dup4\n    /* \"#utility.yul\":5640:5690   */\n  tag_28\n  jump\t// in\ntag_100:\n    /* \"#utility.yul\":5714:5765   */\n  tag_101\n    /* \"#utility.yul\":5761:5764   */\n  dup4\n    /* \"#utility.yul\":5714:5765   */\n  tag_11\n  jump\t// in\ntag_101:\n    /* \"#utility.yul\":5804:5805   */\n  0x01\n    /* \"#utility.yul\":5796:5802   */\n  dup4\n    /* \"#utility.yul\":5792:5806   */\n  div\n    /* \"#utility.yul\":5831:5832   */\n  0x00\n    /* \"#utility.yul\":5816:6238   */\ntag_102:\n    /* \"#utility.yul\":5841:5850   */\n  dup2\n    /* \"#utility.yul\":5838:5839   */\n  dup2\n    /* \"#utility.yul\":5835:5851   */\n  lt\n    /* \"#utility.yul\":5816:6238   */\n  iszero\n  tag_104\n  jumpi\n    /* \"#utility.yul\":5905:5906   */\n  0x00\n    /* \"#utility.yul\":5958:5989   */\n  tag_105\n    /* \"#utility.yul\":5982:5988   */\n  dup6\n    /* \"#utility.yul\":5958:5989   */\n  tag_27\n  jump\t// in\ntag_105:\n    /* \"#utility.yul\":6024:6060   */\n  tag_106\n    /* \"#utility.yul\":6048:6059   */\n  dup2\n    /* \"#utility.yul\":6024:6060   */\n  tag_16\n  jump\t// in\ntag_106:\n    /* \"#utility.yul\":6110:6119   */\n  dup1\n    /* \"#utility.yul\":6077:6119   */\n  swap3\n  pop\n    /* \"#utility.yul\":6159:6161   */\n  0x20\n    /* \"#utility.yul\":6151:6157   */\n  dup8\n    /* \"#utility.yul\":6147:6162   */\n  add\n    /* \"#utility.yul\":6137:6162   */\n  swap7\n  pop\n    /* \"#utility.yul\":5920:6177   */\n  pop\n  pop\n    /* \"#utility.yul\":6215:6227   */\n  dup1\n    /* \"#utility.yul\":6211:6212   */\n  dup3\n    /* \"#utility.yul\":6202:6209   */\n  dup6\n    /* \"#utility.yul\":6198:6213   */\n  add\n    /* \"#utility.yul\":6191:6228   */\n  sstore\n    /* \"#utility.yul\":5871:6238   */\n  pop\n    /* \"#utility.yul\":5866:5867   */\n  0x01\n    /* \"#utility.yul\":5863:5864   */\n  dup2\n    /* \"#utility.yul\":5859:5868   */\n  add\n    /* \"#utility.yul\":5854:5868   */\n  swap1\n  pop\n    /* \"#utility.yul\":5816:6238   */\n  jump(tag_102)\ntag_104:\n    /* \"#utility.yul\":5820:5834   */\n  pop\n    /* \"#utility.yul\":5370:6245   */\n  pop\n  pop\n  pop\n  pop\n    /* \"#utility.yul\":5258:6245   */\n  pop\n  pop\n  jump\t// out\n    /* \"contracts/ArrayOperations.sol\":72:1099  contract ArrayOperations {... */\ntag_4:\n  dataSize(sub_0)\n  dup1\n  dataOffset(sub_0)\n  0x00\n  codecopy\n  0x00\n  return\nstop\n\nsub_0: assembly {\n        /* \"contracts/ArrayOperations.sol\":72:1099  contract ArrayOperations {... */\n      mstore(0x40, 0x80)\n      callvalue\n      dup1\n      iszero\n      tag_1\n      jumpi\n      revert(0x00, 0x00)\n    tag_1:\n      pop\n      jumpi(tag_2, lt(calldatasize, 0x04))\n      shr(0xe0, calldataload(0x00))\n      dup1\n      0x97489c78\n      eq\n      tag_3\n      jumpi\n      dup1\n      0x9ca0382f\n      eq\n      tag_4\n      jumpi\n    tag_2:\n      revert(0x00, 0x00)\n        /* \"contracts/ArrayOperations.sol\":206:245  uint[] public mainNumbers = [5, 10, 15] */\n    tag_3:\n      tag_5\n      0x04\n      dup1\n      calldatasize\n      sub\n      dup2\n      add\n      swap1\n      tag_6\n      swap2\n      swap1\n      tag_7\n      jump\t// in\n    tag_6:\n      tag_8\n      jump\t// in\n    tag_5:\n      mload(0x40)\n      tag_9\n      swap2\n      swap1\n      tag_10\n      jump\t// in\n    tag_9:\n      mload(0x40)\n      dup1\n      swap2\n      sub\n      swap1\n      return\n        /* \"contracts/ArrayOperations.sol\":335:960  function modifyMemoryCopy() public view returns (uint[] memory) {... */\n    tag_4:\n      tag_11\n      tag_12\n      jump\t// in\n    tag_11:\n      mload(0x40)\n      tag_13\n      swap2\n      swap1\n      tag_14\n      jump\t// in\n    tag_13:\n      mload(0x40)\n      dup1\n      swap2\n      sub\n      swap1\n      return\n        /* \"contracts/ArrayOperations.sol\":206:245  uint[] public mainNumbers = [5, 10, 15] */\n    tag_8:\n      0x00\n      dup2\n      dup2\n      sload\n      dup2\n      lt\n      tag_15\n      jumpi\n      0x00\n      dup1\n      revert\n    tag_15:\n      swap1\n      0x00\n      mstore\n      keccak256(0x00, 0x20)\n      add\n      0x00\n      swap2\n      pop\n      swap1\n      pop\n      sload\n      dup2\n      jump\t// out\n        /* \"contracts/ArrayOperations.sol\":335:960  function modifyMemoryCopy() public view returns (uint[] memory) {... */\n    tag_12:\n        /* \"contracts/ArrayOperations.sol\":384:397  uint[] memory */\n      0x60\n        /* \"contracts/ArrayOperations.sol\":519:544  uint[] memory copyNumbers */\n      0x00\n        /* \"contracts/ArrayOperations.sol\":547:558  mainNumbers */\n      0x00\n        /* \"contracts/ArrayOperations.sol\":519:558  uint[] memory copyNumbers = mainNumbers */\n      dup1\n      sload\n      dup1\n      0x20\n      mul\n      0x20\n      add\n      mload(0x40)\n      swap1\n      dup2\n      add\n      0x40\n      mstore\n      dup1\n      swap3\n      swap2\n      swap1\n      dup2\n      dup2\n      mstore\n      0x20\n      add\n      dup3\n      dup1\n      sload\n      dup1\n      iszero\n      tag_18\n      jumpi\n      0x20\n      mul\n      dup3\n      add\n      swap2\n      swap1\n      0x00\n      mstore\n      keccak256(0x00, 0x20)\n      swap1\n    tag_19:\n      dup2\n      sload\n      dup2\n      mstore\n      0x20\n      add\n      swap1\n      0x01\n      add\n      swap1\n      dup1\n      dup4\n      gt\n      tag_19\n      jumpi\n    tag_18:\n      pop\n      pop\n      pop\n      pop\n      pop\n      swap1\n      pop\n        /* \"contracts/ArrayOperations.sol\":680:686  uint i */\n      0x00\n        /* \"contracts/ArrayOperations.sol\":689:690  0 */\n      0x00\n        /* \"contracts/ArrayOperations.sol\":680:690  uint i = 0 */\n      swap1\n      pop\n        /* \"contracts/ArrayOperations.sol\":675:851  for (uint i = 0; i < copyNumbers.length; i++) {... */\n    tag_20:\n        /* \"contracts/ArrayOperations.sol\":696:707  copyNumbers */\n      dup2\n        /* \"contracts/ArrayOperations.sol\":696:714  copyNumbers.length */\n      mload\n        /* \"contracts/ArrayOperations.sol\":692:693  i */\n      dup2\n        /* \"contracts/ArrayOperations.sol\":692:714  i < copyNumbers.length */\n      lt\n        /* \"contracts/ArrayOperations.sol\":675:851  for (uint i = 0; i < copyNumbers.length; i++) {... */\n      iszero\n      tag_21\n      jumpi\n        /* \"contracts/ArrayOperations.sol\":770:773  100 */\n      0x64\n        /* \"contracts/ArrayOperations.sol\":753:764  copyNumbers */\n      dup3\n        /* \"contracts/ArrayOperations.sol\":765:766  i */\n      dup3\n        /* \"contracts/ArrayOperations.sol\":753:767  copyNumbers[i] */\n      dup2\n      mload\n      dup2\n      lt\n      tag_23\n      jumpi\n      tag_24\n      tag_25\n      jump\t// in\n    tag_24:\n    tag_23:\n      0x20\n      mul\n      0x20\n      add\n      add\n      mload\n        /* \"contracts/ArrayOperations.sol\":753:773  copyNumbers[i] + 100 */\n      tag_26\n      swap2\n      swap1\n      tag_27\n      jump\t// in\n    tag_26:\n        /* \"contracts/ArrayOperations.sol\":736:747  copyNumbers */\n      dup3\n        /* \"contracts/ArrayOperations.sol\":748:749  i */\n      dup3\n        /* \"contracts/ArrayOperations.sol\":736:750  copyNumbers[i] */\n      dup2\n      mload\n      dup2\n      lt\n      tag_28\n      jumpi\n      tag_29\n      tag_25\n      jump\t// in\n    tag_29:\n    tag_28:\n      0x20\n      mul\n      0x20\n      add\n      add\n        /* \"contracts/ArrayOperations.sol\":736:773  copyNumbers[i] = copyNumbers[i] + 100 */\n      dup2\n      dup2\n      mstore\n      pop\n      pop\n        /* \"contracts/ArrayOperations.sol\":716:719  i++ */\n      dup1\n      dup1\n      0x01\n      add\n      swap2\n      pop\n      pop\n        /* \"contracts/ArrayOperations.sol\":675:851  for (uint i = 0; i < copyNumbers.length; i++) {... */\n      jump(tag_20)\n    tag_21:\n      pop\n        /* \"contracts/ArrayOperations.sol\":940:951  copyNumbers */\n      dup1\n        /* \"contracts/ArrayOperations.sol\":933:951  return copyNumbers */\n      swap2\n      pop\n      pop\n        /* \"contracts/ArrayOperations.sol\":335:960  function modifyMemoryCopy() public view returns (uint[] memory) {... */\n      swap1\n      jump\t// out\n        /* \"#utility.yul\":88:205   */\n    tag_31:\n        /* \"#utility.yul\":197:198   */\n      0x00\n        /* \"#utility.yul\":194:195   */\n      0x00\n        /* \"#utility.yul\":187:199   */\n      revert\n        /* \"#utility.yul\":334:411   */\n    tag_33:\n        /* \"#utility.yul\":371:378   */\n      0x00\n        /* \"#utility.yul\":400:405   */\n      dup2\n        /* \"#utility.yul\":389:405   */\n      swap1\n      pop\n        /* \"#utility.yul\":334:411   */\n      swap2\n      swap1\n      pop\n      jump\t// out\n        /* \"#utility.yul\":417:539   */\n    tag_34:\n        /* \"#utility.yul\":490:514   */\n      tag_51\n        /* \"#utility.yul\":508:513   */\n      dup2\n        /* \"#utility.yul\":490:514   */\n      tag_33\n      jump\t// in\n    tag_51:\n        /* \"#utility.yul\":483:488   */\n      dup2\n        /* \"#utility.yul\":480:515   */\n      eq\n        /* \"#utility.yul\":470:533   */\n      tag_52\n      jumpi\n        /* \"#utility.yul\":529:530   */\n      0x00\n        /* \"#utility.yul\":526:527   */\n      0x00\n        /* \"#utility.yul\":519:531   */\n      revert\n        /* \"#utility.yul\":470:533   */\n    tag_52:\n        /* \"#utility.yul\":417:539   */\n      pop\n      jump\t// out\n        /* \"#utility.yul\":545:684   */\n    tag_35:\n        /* \"#utility.yul\":591:596   */\n      0x00\n        /* \"#utility.yul\":629:635   */\n      dup2\n        /* \"#utility.yul\":616:636   */\n      calldataload\n        /* \"#utility.yul\":607:636   */\n      swap1\n      pop\n        /* \"#utility.yul\":645:678   */\n      tag_54\n        /* \"#utility.yul\":672:677   */\n      dup2\n        /* \"#utility.yul\":645:678   */\n      tag_34\n      jump\t// in\n    tag_54:\n        /* \"#utility.yul\":545:684   */\n      swap3\n      swap2\n      pop\n      pop\n      jump\t// out\n        /* \"#utility.yul\":690:1019   */\n    tag_7:\n        /* \"#utility.yul\":749:755   */\n      0x00\n        /* \"#utility.yul\":798:800   */\n      0x20\n        /* \"#utility.yul\":786:795   */\n      dup3\n        /* \"#utility.yul\":777:784   */\n      dup5\n        /* \"#utility.yul\":773:796   */\n      sub\n        /* \"#utility.yul\":769:801   */\n      slt\n        /* \"#utility.yul\":766:885   */\n      iszero\n      tag_56\n      jumpi\n        /* \"#utility.yul\":804:883   */\n      tag_57\n      tag_31\n      jump\t// in\n    tag_57:\n        /* \"#utility.yul\":766:885   */\n    tag_56:\n        /* \"#utility.yul\":924:925   */\n      0x00\n        /* \"#utility.yul\":949:1002   */\n      tag_58\n        /* \"#utility.yul\":994:1001   */\n      dup5\n        /* \"#utility.yul\":985:991   */\n      dup3\n        /* \"#utility.yul\":974:983   */\n      dup6\n        /* \"#utility.yul\":970:992   */\n      add\n        /* \"#utility.yul\":949:1002   */\n      tag_35\n      jump\t// in\n    tag_58:\n        /* \"#utility.yul\":939:1002   */\n      swap2\n      pop\n        /* \"#utility.yul\":895:1012   */\n      pop\n        /* \"#utility.yul\":690:1019   */\n      swap3\n      swap2\n      pop\n      pop\n      jump\t// out\n        /* \"#utility.yul\":1025:1143   */\n    tag_36:\n        /* \"#utility.yul\":1112:1136   */\n      tag_60\n        /* \"#utility.yul\":1130:1135   */\n      dup2\n        /* \"#utility.yul\":1112:1136   */\n      tag_33\n      jump\t// in\n    tag_60:\n        /* \"#utility.yul\":1107:1110   */\n      dup3\n        /* \"#utility.yul\":1100:1137   */\n      mstore\n        /* \"#utility.yul\":1025:1143   */\n      pop\n      pop\n      jump\t// out\n        /* \"#utility.yul\":1149:1371   */\n    tag_10:\n        /* \"#utility.yul\":1242:1246   */\n      0x00\n        /* \"#utility.yul\":1280:1282   */\n      0x20\n        /* \"#utility.yul\":1269:1278   */\n      dup3\n        /* \"#utility.yul\":1265:1283   */\n      add\n        /* \"#utility.yul\":1257:1283   */\n      swap1\n      pop\n        /* \"#utility.yul\":1293:1364   */\n      tag_62\n        /* \"#utility.yul\":1361:1362   */\n      0x00\n        /* \"#utility.yul\":1350:1359   */\n      dup4\n        /* \"#utility.yul\":1346:1363   */\n      add\n        /* \"#utility.yul\":1337:1343   */\n      dup5\n        /* \"#utility.yul\":1293:1364   */\n      tag_36\n      jump\t// in\n    tag_62:\n        /* \"#utility.yul\":1149:1371   */\n      swap3\n      swap2\n      pop\n      pop\n      jump\t// out\n        /* \"#utility.yul\":1377:1491   */\n    tag_37:\n        /* \"#utility.yul\":1444:1450   */\n      0x00\n        /* \"#utility.yul\":1478:1483   */\n      dup2\n        /* \"#utility.yul\":1472:1484   */\n      mload\n        /* \"#utility.yul\":1462:1484   */\n      swap1\n      pop\n        /* \"#utility.yul\":1377:1491   */\n      swap2\n      swap1\n      pop\n      jump\t// out\n        /* \"#utility.yul\":1497:1681   */\n    tag_38:\n        /* \"#utility.yul\":1596:1607   */\n      0x00\n        /* \"#utility.yul\":1630:1636   */\n      dup3\n        /* \"#utility.yul\":1625:1628   */\n      dup3\n        /* \"#utility.yul\":1618:1637   */\n      mstore\n        /* \"#utility.yul\":1670:1674   */\n      0x20\n        /* \"#utility.yul\":1665:1668   */\n      dup3\n        /* \"#utility.yul\":1661:1675   */\n      add\n        /* \"#utility.yul\":1646:1675   */\n      swap1\n      pop\n        /* \"#utility.yul\":1497:1681   */\n      swap3\n      swap2\n      pop\n      pop\n      jump\t// out\n        /* \"#utility.yul\":1687:1819   */\n    tag_39:\n        /* \"#utility.yul\":1754:1758   */\n      0x00\n        /* \"#utility.yul\":1777:1780   */\n      dup2\n        /* \"#utility.yul\":1769:1780   */\n      swap1\n      pop\n        /* \"#utility.yul\":1807:1811   */\n      0x20\n        /* \"#utility.yul\":1802:1805   */\n      dup3\n        /* \"#utility.yul\":1798:1812   */\n      add\n        /* \"#utility.yul\":1790:1812   */\n      swap1\n      pop\n        /* \"#utility.yul\":1687:1819   */\n      swap2\n      swap1\n      pop\n      jump\t// out\n        /* \"#utility.yul\":1825:1933   */\n    tag_40:\n        /* \"#utility.yul\":1902:1926   */\n      tag_67\n        /* \"#utility.yul\":1920:1925   */\n      dup2\n        /* \"#utility.yul\":1902:1926   */\n      tag_33\n      jump\t// in\n    tag_67:\n        /* \"#utility.yul\":1897:1900   */\n      dup3\n        /* \"#utility.yul\":1890:1927   */\n      mstore\n        /* \"#utility.yul\":1825:1933   */\n      pop\n      pop\n      jump\t// out\n        /* \"#utility.yul\":1939:2118   */\n    tag_41:\n        /* \"#utility.yul\":2008:2018   */\n      0x00\n        /* \"#utility.yul\":2029:2075   */\n      tag_69\n        /* \"#utility.yul\":2071:2074   */\n      dup4\n        /* \"#utility.yul\":2063:2069   */\n      dup4\n        /* \"#utility.yul\":2029:2075   */\n      tag_40\n      jump\t// in\n    tag_69:\n        /* \"#utility.yul\":2107:2111   */\n      0x20\n        /* \"#utility.yul\":2102:2105   */\n      dup4\n        /* \"#utility.yul\":2098:2112   */\n      add\n        /* \"#utility.yul\":2084:2112   */\n      swap1\n      pop\n        /* \"#utility.yul\":1939:2118   */\n      swap3\n      swap2\n      pop\n      pop\n      jump\t// out\n        /* \"#utility.yul\":2124:2237   */\n    tag_42:\n        /* \"#utility.yul\":2194:2198   */\n      0x00\n        /* \"#utility.yul\":2226:2230   */\n      0x20\n        /* \"#utility.yul\":2221:2224   */\n      dup3\n        /* \"#utility.yul\":2217:2231   */\n      add\n        /* \"#utility.yul\":2209:2231   */\n      swap1\n      pop\n        /* \"#utility.yul\":2124:2237   */\n      swap2\n      swap1\n      pop\n      jump\t// out\n        /* \"#utility.yul\":2273:3005   */\n    tag_43:\n        /* \"#utility.yul\":2392:2395   */\n      0x00\n        /* \"#utility.yul\":2421:2475   */\n      tag_72\n        /* \"#utility.yul\":2469:2474   */\n      dup3\n        /* \"#utility.yul\":2421:2475   */\n      tag_37\n      jump\t// in\n    tag_72:\n        /* \"#utility.yul\":2491:2577   */\n      tag_73\n        /* \"#utility.yul\":2570:2576   */\n      dup2\n        /* \"#utility.yul\":2565:2568   */\n      dup6\n        /* \"#utility.yul\":2491:2577   */\n      tag_38\n      jump\t// in\n    tag_73:\n        /* \"#utility.yul\":2484:2577   */\n      swap4\n      pop\n        /* \"#utility.yul\":2601:2657   */\n      tag_74\n        /* \"#utility.yul\":2651:2656   */\n      dup4\n        /* \"#utility.yul\":2601:2657   */\n      tag_39\n      jump\t// in\n    tag_74:\n        /* \"#utility.yul\":2680:2687   */\n      dup1\n        /* \"#utility.yul\":2711:2712   */\n      0x00\n        /* \"#utility.yul\":2696:2980   */\n    tag_75:\n        /* \"#utility.yul\":2721:2727   */\n      dup4\n        /* \"#utility.yul\":2718:2719   */\n      dup2\n        /* \"#utility.yul\":2715:2728   */\n      lt\n        /* \"#utility.yul\":2696:2980   */\n      iszero\n      tag_77\n      jumpi\n        /* \"#utility.yul\":2797:2803   */\n      dup2\n        /* \"#utility.yul\":2791:2804   */\n      mload\n        /* \"#utility.yul\":2824:2887   */\n      tag_78\n        /* \"#utility.yul\":2883:2886   */\n      dup9\n        /* \"#utility.yul\":2868:2881   */\n      dup3\n        /* \"#utility.yul\":2824:2887   */\n      tag_41\n      jump\t// in\n    tag_78:\n        /* \"#utility.yul\":2817:2887   */\n      swap8\n      pop\n        /* \"#utility.yul\":2910:2970   */\n      tag_79\n        /* \"#utility.yul\":2963:2969   */\n      dup4\n        /* \"#utility.yul\":2910:2970   */\n      tag_42\n      jump\t// in\n    tag_79:\n        /* \"#utility.yul\":2900:2970   */\n      swap3\n      pop\n        /* \"#utility.yul\":2756:2980   */\n      pop\n        /* \"#utility.yul\":2743:2744   */\n      0x01\n        /* \"#utility.yul\":2740:2741   */\n      dup2\n        /* \"#utility.yul\":2736:2745   */\n      add\n        /* \"#utility.yul\":2731:2745   */\n      swap1\n      pop\n        /* \"#utility.yul\":2696:2980   */\n      jump(tag_75)\n    tag_77:\n        /* \"#utility.yul\":2700:2714   */\n      pop\n        /* \"#utility.yul\":2996:2999   */\n      dup6\n        /* \"#utility.yul\":2989:2999   */\n      swap4\n      pop\n        /* \"#utility.yul\":2397:3005   */\n      pop\n      pop\n      pop\n        /* \"#utility.yul\":2273:3005   */\n      swap3\n      swap2\n      pop\n      pop\n      jump\t// out\n        /* \"#utility.yul\":3011:3384   */\n    tag_14:\n        /* \"#utility.yul\":3154:3158   */\n      0x00\n        /* \"#utility.yul\":3192:3194   */\n      0x20\n        /* \"#utility.yul\":3181:3190   */\n      dup3\n        /* \"#utility.yul\":3177:3195   */\n      add\n        /* \"#utility.yul\":3169:3195   */\n      swap1\n      pop\n        /* \"#utility.yul\":3241:3250   */\n      dup2\n        /* \"#utility.yul\":3235:3239   */\n      dup2\n        /* \"#utility.yul\":3231:3251   */\n      sub\n        /* \"#utility.yul\":3227:3228   */\n      0x00\n        /* \"#utility.yul\":3216:3225   */\n      dup4\n        /* \"#utility.yul\":3212:3229   */\n      add\n        /* \"#utility.yul\":3205:3252   */\n      mstore\n        /* \"#utility.yul\":3269:3377   */\n      tag_81\n        /* \"#utility.yul\":3372:3376   */\n      dup2\n        /* \"#utility.yul\":3363:3369   */\n      dup5\n        /* \"#utility.yul\":3269:3377   */\n      tag_43\n      jump\t// in\n    tag_81:\n        /* \"#utility.yul\":3261:3377   */\n      swap1\n      pop\n        /* \"#utility.yul\":3011:3384   */\n      swap3\n      swap2\n      pop\n      pop\n      jump\t// out\n        /* \"#utility.yul\":3390:3570   */\n    tag_25:\n        /* \"#utility.yul\":3438:3515   */\n      0x4e487b7100000000000000000000000000000000000000000000000000000000\n        /* \"#utility.yul\":3435:3436   */\n      0x00\n        /* \"#utility.yul\":3428:3516   */\n      mstore\n        /* \"#utility.yul\":3535:3539   */\n      0x32\n        /* \"#utility.yul\":3532:3533   */\n      0x04\n        /* \"#utility.yul\":3525:3540   */\n      mstore\n        /* \"#utility.yul\":3559:3563   */\n      0x24\n        /* \"#utility.yul\":3556:3557   */\n      0x00\n        /* \"#utility.yul\":3549:3564   */\n      revert\n        /* \"#utility.yul\":3576:3756   */\n    tag_44:\n        /* \"#utility.yul\":3624:3701   */\n      0x4e487b7100000000000000000000000000000000000000000000000000000000\n        /* \"#utility.yul\":3621:3622   */\n      0x00\n        /* \"#utility.yul\":3614:3702   */\n      mstore\n        /* \"#utility.yul\":3721:3725   */\n      0x11\n        /* \"#utility.yul\":3718:3719   */\n      0x04\n        /* \"#utility.yul\":3711:3726   */\n      mstore\n        /* \"#utility.yul\":3745:3749   */\n      0x24\n        /* \"#utility.yul\":3742:3743   */\n      0x00\n        /* \"#utility.yul\":3735:3750   */\n      revert\n        /* \"#utility.yul\":3762:3953   */\n    tag_27:\n        /* \"#utility.yul\":3802:3805   */\n      0x00\n        /* \"#utility.yul\":3821:3841   */\n      tag_85\n        /* \"#utility.yul\":3839:3840   */\n      dup3\n        /* \"#utility.yul\":3821:3841   */\n      tag_33\n      jump\t// in\n    tag_85:\n        /* \"#utility.yul\":3816:3841   */\n      swap2\n      pop\n        /* \"#utility.yul\":3855:3875   */\n      tag_86\n        /* \"#utility.yul\":3873:3874   */\n      dup4\n        /* \"#utility.yul\":3855:3875   */\n      tag_33\n      jump\t// in\n    tag_86:\n        /* \"#utility.yul\":3850:3875   */\n      swap3\n      pop\n        /* \"#utility.yul\":3898:3899   */\n      dup3\n        /* \"#utility.yul\":3895:3896   */\n      dup3\n        /* \"#utility.yul\":3891:3900   */\n      add\n        /* \"#utility.yul\":3884:3900   */\n      swap1\n      pop\n        /* \"#utility.yul\":3919:3922   */\n      dup1\n        /* \"#utility.yul\":3916:3917   */\n      dup3\n        /* \"#utility.yul\":3913:3923   */\n      gt\n        /* \"#utility.yul\":3910:3946   */\n      iszero\n      tag_87\n      jumpi\n        /* \"#utility.yul\":3926:3944   */\n      tag_88\n      tag_44\n      jump\t// in\n    tag_88:\n        /* \"#utility.yul\":3910:3946   */\n    tag_87:\n        /* \"#utility.yul\":3762:3953   */\n      swap3\n      swap2\n      pop\n      pop\n      jump\t// out\n\n    auxdata: 0xa2646970667358221220be47678e64aa7256e664e5c51b11fe38eeb4dcf478a3e9ade419d5e389a6546064736f6c63430008220033\n}\n",
				"bytecode": {
					"linkReferences": {},
					"object": "60806040526040518060600160405280600560ff168152602001600a60ff168152602001600f60ff168152505f9081610038919061024f565b50348015610044575f5ffd5b506102d3565b7f4e487b71000000000000000000000000000000000000000000000000000000005f52604160045260245ffd5b5f81549050919050565b5f819050919050565b5f8190506001806001038301049050919050565b5f819050815f5260205f209050919050565b5f82821b905092915050565b5f600883026100eb7fffffffffffffffffffffffffffffffffffffffffffffffffffffffffffffffff826100b0565b6100f586836100b0565b95508019841693508086168417925050509392505050565b5f819050919050565b5f61013061012b61012684610081565b61010d565b610081565b9050919050565b5f819050919050565b61014983610116565b61015d61015582610137565b8484546100bc565b825550505050565b5f5f905090565b610174610165565b61017f818484610140565b505050565b5f5b828110156101a55761019a5f82840161016c565b600181019050610186565b505050565b818310156101e1576101bb8261008a565b6101c48461008a565b6101cd8361009e565b8181016101dc83850382610184565b505050505b505050565b68010000000000000000821115610200576101ff61004a565b5b61020981610077565b8282556102178382846101aa565b505050565b5f60039050919050565b5f60ff82169050919050565b5f61023d8251610226565b80915050919050565b5f819050919050565b6102588261021c565b67ffffffffffffffff8111156102715761027061004a565b5b61027b81836101e6565b61028483610246565b61028d8361009e565b600183045f5b818110156102ca575f6102a585610232565b6102ae81610137565b8092506020870196505050808285015550600181019050610293565b50505050505050565b610385806102e05f395ff3fe608060405234801561000f575f5ffd5b5060043610610034575f3560e01c806397489c78146100385780639ca0382f14610068575b5f5ffd5b610052600480360381019061004d9190610198565b610086565b60405161005f91906101d2565b60405180910390f35b6100706100a5565b60405161007d91906102a2565b60405180910390f35b5f8181548110610094575f80fd5b905f5260205f20015f915090505481565b60605f5f8054806020026020016040519081016040528092919081815260200182805480156100f157602002820191905f5260205f20905b8154815260200190600101908083116100dd575b505050505090505f5f90505b815181101561015957606482828151811061011b5761011a6102c2565b5b602002602001015161012d919061031c565b8282815181106101405761013f6102c2565b5b60200260200101818152505080806001019150506100fd565b508091505090565b5f5ffd5b5f819050919050565b61017781610165565b8114610181575f5ffd5b50565b5f813590506101928161016e565b92915050565b5f602082840312156101ad576101ac610161565b5b5f6101ba84828501610184565b91505092915050565b6101cc81610165565b82525050565b5f6020820190506101e55f8301846101c3565b92915050565b5f81519050919050565b5f82825260208201905092915050565b5f819050602082019050919050565b61021d81610165565b82525050565b5f61022e8383610214565b60208301905092915050565b5f602082019050919050565b5f610250826101eb565b61025a81856101f5565b935061026583610205565b805f5b8381101561029557815161027c8882610223565b97506102878361023a565b925050600181019050610268565b5085935050505092915050565b5f6020820190508181035f8301526102ba8184610246565b905092915050565b7f4e487b71000000000000000000000000000000000000000000000000000000005f52603260045260245ffd5b7f4e487b71000000000000000000000000000000000000000000000000000000005f52601160045260245ffd5b5f61032682610165565b915061033183610165565b9250828201905080821115610349576103486102ef565b5b9291505056fea2646970667358221220be47678e64aa7256e664e5c51b11fe38eeb4dcf478a3e9ade419d5e389a6546064736f6c63430008220033",
					"opcodes": "PUSH1 0x80 PUSH1 0x40 MSTORE PUSH1 0x40 MLOAD DUP1 PUSH1 0x60 ADD PUSH1 0x40 MSTORE DUP1 PUSH1 0x5 PUSH1 0xFF AND DUP2 MSTORE PUSH1 0x20 ADD PUSH1 0xA PUSH1 0xFF AND DUP2 MSTORE PUSH1 0x20 ADD PUSH1 0xF PUSH1 0xFF AND DUP2 MSTORE POP PUSH0 SWAP1 DUP2 PUSH2 0x38 SWAP2 SWAP1 PUSH2 0x24F JUMP JUMPDEST POP CALLVALUE DUP1 ISZERO PUSH2 0x44 JUMPI PUSH0 PUSH0 REVERT JUMPDEST POP PUSH2 0x2D3 JUMP JUMPDEST PUSH32 0x4E487B7100000000000000000000000000000000000000000000000000000000 PUSH0 MSTORE PUSH1 0x41 PUSH1 0x4 MSTORE PUSH1 0x24 PUSH0 REVERT JUMPDEST PUSH0 DUP2 SLOAD SWAP1 POP SWAP2 SWAP1 POP JUMP JUMPDEST PUSH0 DUP2 SWAP1 POP SWAP2 SWAP1 POP JUMP JUMPDEST PUSH0 DUP2 SWAP1 POP PUSH1 0x1 DUP1 PUSH1 0x1 SUB DUP4 ADD DIV SWAP1 POP SWAP2 SWAP1 POP JUMP JUMPDEST PUSH0 DUP2 SWAP1 POP DUP2 PUSH0 MSTORE PUSH1 0x20 PUSH0 KECCAK256 SWAP1 POP SWAP2 SWAP1 POP JUMP JUMPDEST PUSH0 DUP3 DUP3 SHL SWAP1 POP SWAP3 SWAP2 POP POP JUMP JUMPDEST PUSH0 PUSH1 0x8 DUP4 MUL PUSH2 0xEB PUSH32 0xFFFFFFFFFFFFFFFFFFFFFFFFFFFFFFFFFFFFFFFFFFFFFFFFFFFFFFFFFFFFFFFF DUP3 PUSH2 0xB0 JUMP JUMPDEST PUSH2 0xF5 DUP7 DUP4 PUSH2 0xB0 JUMP JUMPDEST SWAP6 POP DUP1 NOT DUP5 AND SWAP4 POP DUP1 DUP7 AND DUP5 OR SWAP3 POP POP POP SWAP4 SWAP3 POP POP POP JUMP JUMPDEST PUSH0 DUP2 SWAP1 POP SWAP2 SWAP1 POP JUMP JUMPDEST PUSH0 PUSH2 0x130 PUSH2 0x12B PUSH2 0x126 DUP5 PUSH2 0x81 JUMP JUMPDEST PUSH2 0x10D JUMP JUMPDEST PUSH2 0x81 JUMP JUMPDEST SWAP1 POP SWAP2 SWAP1 POP JUMP JUMPDEST PUSH0 DUP2 SWAP1 POP SWAP2 SWAP1 POP JUMP JUMPDEST PUSH2 0x149 DUP4 PUSH2 0x116 JUMP JUMPDEST PUSH2 0x15D PUSH2 0x155 DUP3 PUSH2 0x137 JUMP JUMPDEST DUP5 DUP5 SLOAD PUSH2 0xBC JUMP JUMPDEST DUP3 SSTORE POP POP POP POP JUMP JUMPDEST PUSH0 PUSH0 SWAP1 POP SWAP1 JUMP JUMPDEST PUSH2 0x174 PUSH2 0x165 JUMP JUMPDEST PUSH2 0x17F DUP2 DUP5 DUP5 PUSH2 0x140 JUMP JUMPDEST POP POP POP JUMP JUMPDEST PUSH0 JUMPDEST DUP3 DUP2 LT ISZERO PUSH2 0x1A5 JUMPI PUSH2 0x19A PUSH0 DUP3 DUP5 ADD PUSH2 0x16C JUMP JUMPDEST PUSH1 0x1 DUP2 ADD SWAP1 POP PUSH2 0x186 JUMP JUMPDEST POP POP POP JUMP JUMPDEST DUP2 DUP4 LT ISZERO PUSH2 0x1E1 JUMPI PUSH2 0x1BB DUP3 PUSH2 0x8A JUMP JUMPDEST PUSH2 0x1C4 DUP5 PUSH2 0x8A JUMP JUMPDEST PUSH2 0x1CD DUP4 PUSH2 0x9E JUMP JUMPDEST DUP2 DUP2 ADD PUSH2 0x1DC DUP4 DUP6 SUB DUP3 PUSH2 0x184 JUMP JUMPDEST POP POP POP POP JUMPDEST POP POP POP JUMP JUMPDEST PUSH9 0x10000000000000000 DUP3 GT ISZERO PUSH2 0x200 JUMPI PUSH2 0x1FF PUSH2 0x4A JUMP JUMPDEST JUMPDEST PUSH2 0x209 DUP2 PUSH2 0x77 JUMP JUMPDEST DUP3 DUP3 SSTORE PUSH2 0x217 DUP4 DUP3 DUP5 PUSH2 0x1AA JUMP JUMPDEST POP POP POP JUMP JUMPDEST PUSH0 PUSH1 0x3 SWAP1 POP SWAP2 SWAP1 POP JUMP JUMPDEST PUSH0 PUSH1 0xFF DUP3 AND SWAP1 POP SWAP2 SWAP1 POP JUMP JUMPDEST PUSH0 PUSH2 0x23D DUP3 MLOAD PUSH2 0x226 JUMP JUMPDEST DUP1 SWAP2 POP POP SWAP2 SWAP1 POP JUMP JUMPDEST PUSH0 DUP2 SWAP1 POP SWAP2 SWAP1 POP JUMP JUMPDEST PUSH2 0x258 DUP3 PUSH2 0x21C JUMP JUMPDEST PUSH8 0xFFFFFFFFFFFFFFFF DUP2 GT ISZERO PUSH2 0x271 JUMPI PUSH2 0x270 PUSH2 0x4A JUMP JUMPDEST JUMPDEST PUSH2 0x27B DUP2 DUP4 PUSH2 0x1E6 JUMP JUMPDEST PUSH2 0x284 DUP4 PUSH2 0x246 JUMP JUMPDEST PUSH2 0x28D DUP4 PUSH2 0x9E JUMP JUMPDEST PUSH1 0x1 DUP4 DIV PUSH0 JUMPDEST DUP2 DUP2 LT ISZERO PUSH2 0x2CA JUMPI PUSH0 PUSH2 0x2A5 DUP6 PUSH2 0x232 JUMP JUMPDEST PUSH2 0x2AE DUP2 PUSH2 0x137 JUMP JUMPDEST DUP1 SWAP3 POP PUSH1 0x20 DUP8 ADD SWAP7 POP POP POP DUP1 DUP3 DUP6 ADD SSTORE POP PUSH1 0x1 DUP2 ADD SWAP1 POP PUSH2 0x293 JUMP JUMPDEST POP POP POP POP POP POP POP JUMP JUMPDEST PUSH2 0x385 DUP1 PUSH2 0x2E0 PUSH0 CODECOPY PUSH0 RETURN INVALID PUSH1 0x80 PUSH1 0x40 MSTORE CALLVALUE DUP1 ISZERO PUSH2 0xF JUMPI PUSH0 PUSH0 REVERT JUMPDEST POP PUSH1 0x4 CALLDATASIZE LT PUSH2 0x34 JUMPI PUSH0 CALLDATALOAD PUSH1 0xE0 SHR DUP1 PUSH4 0x97489C78 EQ PUSH2 0x38 JUMPI DUP1 PUSH4 0x9CA0382F EQ PUSH2 0x68 JUMPI JUMPDEST PUSH0 PUSH0 REVERT JUMPDEST PUSH2 0x52 PUSH1 0x4 DUP1 CALLDATASIZE SUB DUP2 ADD SWAP1 PUSH2 0x4D SWAP2 SWAP1 PUSH2 0x198 JUMP JUMPDEST PUSH2 0x86 JUMP JUMPDEST PUSH1 0x40 MLOAD PUSH2 0x5F SWAP2 SWAP1 PUSH2 0x1D2 JUMP JUMPDEST PUSH1 0x40 MLOAD DUP1 SWAP2 SUB SWAP1 RETURN JUMPDEST PUSH2 0x70 PUSH2 0xA5 JUMP JUMPDEST PUSH1 0x40 MLOAD PUSH2 0x7D SWAP2 SWAP1 PUSH2 0x2A2 JUMP JUMPDEST PUSH1 0x40 MLOAD DUP1 SWAP2 SUB SWAP1 RETURN JUMPDEST PUSH0 DUP2 DUP2 SLOAD DUP2 LT PUSH2 0x94 JUMPI PUSH0 DUP1 REVERT JUMPDEST SWAP1 PUSH0 MSTORE PUSH1 0x20 PUSH0 KECCAK256 ADD PUSH0 SWAP2 POP SWAP1 POP SLOAD DUP2 JUMP JUMPDEST PUSH1 0x60 PUSH0 PUSH0 DUP1 SLOAD DUP1 PUSH1 0x20 MUL PUSH1 0x20 ADD PUSH1 0x40 MLOAD SWAP1 DUP2 ADD PUSH1 0x40 MSTORE DUP1 SWAP3 SWAP2 SWAP1 DUP2 DUP2 MSTORE PUSH1 0x20 ADD DUP3 DUP1 SLOAD DUP1 ISZERO PUSH2 0xF1 JUMPI PUSH1 0x20 MUL DUP3 ADD SWAP2 SWAP1 PUSH0 MSTORE PUSH1 0x20 PUSH0 KECCAK256 SWAP1 JUMPDEST DUP2 SLOAD DUP2 MSTORE PUSH1 0x20 ADD SWAP1 PUSH1 0x1 ADD SWAP1 DUP1 DUP4 GT PUSH2 0xDD JUMPI JUMPDEST POP POP POP POP POP SWAP1 POP PUSH0 PUSH0 SWAP1 POP JUMPDEST DUP2 MLOAD DUP2 LT ISZERO PUSH2 0x159 JUMPI PUSH1 0x64 DUP3 DUP3 DUP2 MLOAD DUP2 LT PUSH2 0x11B JUMPI PUSH2 0x11A PUSH2 0x2C2 JUMP JUMPDEST JUMPDEST PUSH1 0x20 MUL PUSH1 0x20 ADD ADD MLOAD PUSH2 0x12D SWAP2 SWAP1 PUSH2 0x31C JUMP JUMPDEST DUP3 DUP3 DUP2 MLOAD DUP2 LT PUSH2 0x140 JUMPI PUSH2 0x13F PUSH2 0x2C2 JUMP JUMPDEST JUMPDEST PUSH1 0x20 MUL PUSH1 0x20 ADD ADD DUP2 DUP2 MSTORE POP POP DUP1 DUP1 PUSH1 0x1 ADD SWAP2 POP POP PUSH2 0xFD JUMP JUMPDEST POP DUP1 SWAP2 POP POP SWAP1 JUMP JUMPDEST PUSH0 PUSH0 REVERT JUMPDEST PUSH0 DUP2 SWAP1 POP SWAP2 SWAP1 POP JUMP JUMPDEST PUSH2 0x177 DUP2 PUSH2 0x165 JUMP JUMPDEST DUP2 EQ PUSH2 0x181 JUMPI PUSH0 PUSH0 REVERT JUMPDEST POP JUMP JUMPDEST PUSH0 DUP2 CALLDATALOAD SWAP1 POP PUSH2 0x192 DUP2 PUSH2 0x16E JUMP JUMPDEST SWAP3 SWAP2 POP POP JUMP JUMPDEST PUSH0 PUSH1 0x20 DUP3 DUP5 SUB SLT ISZERO PUSH2 0x1AD JUMPI PUSH2 0x1AC PUSH2 0x161 JUMP JUMPDEST JUMPDEST PUSH0 PUSH2 0x1BA DUP5 DUP3 DUP6 ADD PUSH2 0x184 JUMP JUMPDEST SWAP2 POP POP SWAP3 SWAP2 POP POP JUMP JUMPDEST PUSH2 0x1CC DUP2 PUSH2 0x165 JUMP JUMPDEST DUP3 MSTORE POP POP JUMP JUMPDEST PUSH0 PUSH1 0x20 DUP3 ADD SWAP1 POP PUSH2 0x1E5 PUSH0 DUP4 ADD DUP5 PUSH2 0x1C3 JUMP JUMPDEST SWAP3 SWAP2 POP POP JUMP JUMPDEST PUSH0 DUP2 MLOAD SWAP1 POP SWAP2 SWAP1 POP JUMP JUMPDEST PUSH0 DUP3 DUP3 MSTORE PUSH1 0x20 DUP3 ADD SWAP1 POP SWAP3 SWAP2 POP POP JUMP JUMPDEST PUSH0 DUP2 SWAP1 POP PUSH1 0x20 DUP3 ADD SWAP1 POP SWAP2 SWAP1 POP JUMP JUMPDEST PUSH2 0x21D DUP2 PUSH2 0x165 JUMP JUMPDEST DUP3 MSTORE POP POP JUMP JUMPDEST PUSH0 PUSH2 0x22E DUP4 DUP4 PUSH2 0x214 JUMP JUMPDEST PUSH1 0x20 DUP4 ADD SWAP1 POP SWAP3 SWAP2 POP POP JUMP JUMPDEST PUSH0 PUSH1 0x20 DUP3 ADD SWAP1 POP SWAP2 SWAP1 POP JUMP JUMPDEST PUSH0 PUSH2 0x250 DUP3 PUSH2 0x1EB JUMP JUMPDEST PUSH2 0x25A DUP2 DUP6 PUSH2 0x1F5 JUMP JUMPDEST SWAP4 POP PUSH2 0x265 DUP4 PUSH2 0x205 JUMP JUMPDEST DUP1 PUSH0 JUMPDEST DUP4 DUP2 LT ISZERO PUSH2 0x295 JUMPI DUP2 MLOAD PUSH2 0x27C DUP9 DUP3 PUSH2 0x223 JUMP JUMPDEST SWAP8 POP PUSH2 0x287 DUP4 PUSH2 0x23A JUMP JUMPDEST SWAP3 POP POP PUSH1 0x1 DUP2 ADD SWAP1 POP PUSH2 0x268 JUMP JUMPDEST POP DUP6 SWAP4 POP POP POP POP SWAP3 SWAP2 POP POP JUMP JUMPDEST PUSH0 PUSH1 0x20 DUP3 ADD SWAP1 POP DUP2 DUP2 SUB PUSH0 DUP4 ADD MSTORE PUSH2 0x2BA DUP2 DUP5 PUSH2 0x246 JUMP JUMPDEST SWAP1 POP SWAP3 SWAP2 POP POP JUMP JUMPDEST PUSH32 0x4E487B7100000000000000000000000000000000000000000000000000000000 PUSH0 MSTORE PUSH1 0x32 PUSH1 0x4 MSTORE PUSH1 0x24 PUSH0 REVERT JUMPDEST PUSH32 0x4E487B7100000000000000000000000000000000000000000000000000000000 PUSH0 MSTORE PUSH1 0x11 PUSH1 0x4 MSTORE PUSH1 0x24 PUSH0 REVERT JUMPDEST PUSH0 PUSH2 0x326 DUP3 PUSH2 0x165 JUMP JUMPDEST SWAP2 POP PUSH2 0x331 DUP4 PUSH2 0x165 JUMP JUMPDEST SWAP3 POP DUP3 DUP3 ADD SWAP1 POP DUP1 DUP3 GT ISZERO PUSH2 0x349 JUMPI PUSH2 0x348 PUSH2 0x2EF JUMP JUMPDEST JUMPDEST SWAP3 SWAP2 POP POP JUMP INVALID LOG2 PUSH5 0x6970667358 0x22 SLT KECCAK256 0xBE SELFBALANCE PUSH8 0x8E64AA7256E664E5 0xC5 SHL GT INVALID CODESIZE RETURNCONTRACT 0xB4 0xDC DELEGATECALL PUSH25 0xA3E9ADE419D5E389A6546064736F6C63430008220033000000 "
				},
				"gasEstimates": {
					"creation": {
						"codeDepositCost": "180200",
						"executionCost": "infinite",
						"totalCost": "infinite"
					},
					"external": {
						"mainNumbers(uint256)": "infinite",
						"modifyMemoryCopy()": "infinite"
					}
				},
				"methodIdentifiers": {
					"mainNumbers(uint256)": "97489c78",
					"modifyMemoryCopy()": "9ca0382f"
				}
			},
			"storageLayout": {
				"storage": [
					{
						"astId": 8,
						"contract": "contracts/ArrayOperations.sol:ArrayOperations",
						"label": "mainNumbers",
						"offset": 0,
						"slot": "0",
						"type": "t_array(t_uint256)dyn_storage"
					}
				],
				"types": {
					"t_array(t_uint256)dyn_storage": {
						"base": "t_uint256",
						"encoding": "dynamic_array",
						"label": "uint256[]",
						"numberOfBytes": "32"
					},
					"t_uint256": {
						"encoding": "inplace",
						"label": "uint256",
						"numberOfBytes": "32"
					}
				}
			},
			"userdoc": {
				"kind": "user",
				"methods": {},
				"version": 1
			}
		}
	}
}